{
  "address": "0x137f0Ae7C609D7a55c03FdaD0F0F9798E1e47585",
  "abi": [
    {
      "inputs": [
        {
          "internalType": "address",
          "name": "_endpoint",
          "type": "address"
        },
        {
          "internalType": "address",
          "name": "_delegate",
          "type": "address"
        },
        {
          "internalType": "address",
          "name": "_verifier",
          "type": "address"
        }
      ],
      "stateMutability": "nonpayable",
      "type": "constructor"
    },
    {
      "inputs": [
        {
          "internalType": "address",
          "name": "target",
          "type": "address"
        }
      ],
      "name": "AddressEmptyCode",
      "type": "error"
    },
    {
      "inputs": [
        {
          "internalType": "address",
          "name": "account",
          "type": "address"
        }
      ],
      "name": "AddressInsufficientBalance",
      "type": "error"
    },
    {
      "inputs": [],
      "name": "FailedInnerCall",
      "type": "error"
    },
    {
      "inputs": [],
      "name": "InvalidDelegate",
      "type": "error"
    },
    {
      "inputs": [],
      "name": "InvalidEndpointCall",
      "type": "error"
    },
    {
      "inputs": [
        {
          "internalType": "uint16",
          "name": "optionType",
          "type": "uint16"
        }
      ],
      "name": "InvalidOptionType",
      "type": "error"
    },
    {
      "inputs": [],
      "name": "LzTokenUnavailable",
      "type": "error"
    },
    {
      "inputs": [
        {
          "internalType": "uint32",
          "name": "eid",
          "type": "uint32"
        }
      ],
      "name": "NoPeer",
      "type": "error"
    },
    {
      "inputs": [
        {
          "internalType": "uint256",
          "name": "msgValue",
          "type": "uint256"
        }
      ],
      "name": "NotEnoughNative",
      "type": "error"
    },
    {
      "inputs": [
        {
          "internalType": "address",
          "name": "addr",
          "type": "address"
        }
      ],
      "name": "OnlyEndpoint",
      "type": "error"
    },
    {
      "inputs": [
        {
          "internalType": "uint32",
          "name": "eid",
          "type": "uint32"
        },
        {
          "internalType": "bytes32",
          "name": "sender",
          "type": "bytes32"
        }
      ],
      "name": "OnlyPeer",
      "type": "error"
    },
    {
      "inputs": [
        {
          "internalType": "address",
          "name": "owner",
          "type": "address"
        }
      ],
      "name": "OwnableInvalidOwner",
      "type": "error"
    },
    {
      "inputs": [
        {
          "internalType": "address",
          "name": "account",
          "type": "address"
        }
      ],
      "name": "OwnableUnauthorizedAccount",
      "type": "error"
    },
    {
      "inputs": [
        {
          "internalType": "uint8",
          "name": "bits",
          "type": "uint8"
        },
        {
          "internalType": "uint256",
          "name": "value",
          "type": "uint256"
        }
      ],
      "name": "SafeCastOverflowedUintDowncast",
      "type": "error"
    },
    {
      "inputs": [
        {
          "internalType": "address",
          "name": "token",
          "type": "address"
        }
      ],
      "name": "SafeERC20FailedOperation",
      "type": "error"
    },
    {
      "anonymous": false,
      "inputs": [
        {
          "indexed": true,
          "internalType": "address",
          "name": "previousOwner",
          "type": "address"
        },
        {
          "indexed": true,
          "internalType": "address",
          "name": "newOwner",
          "type": "address"
        }
      ],
      "name": "OwnershipTransferred",
      "type": "event"
    },
    {
      "anonymous": false,
      "inputs": [
        {
          "indexed": false,
          "internalType": "uint32",
          "name": "eid",
          "type": "uint32"
        },
        {
          "indexed": false,
          "internalType": "bytes32",
          "name": "peer",
          "type": "bytes32"
        }
      ],
      "name": "PeerSet",
      "type": "event"
    },
    {
      "inputs": [
        {
          "components": [
            {
              "internalType": "uint32",
              "name": "srcEid",
              "type": "uint32"
            },
            {
              "internalType": "bytes32",
              "name": "sender",
              "type": "bytes32"
            },
            {
              "internalType": "uint64",
              "name": "nonce",
              "type": "uint64"
            }
          ],
          "internalType": "struct Origin",
          "name": "origin",
          "type": "tuple"
        }
      ],
      "name": "allowInitializePath",
      "outputs": [
        {
          "internalType": "bool",
          "name": "",
          "type": "bool"
        }
      ],
      "stateMutability": "view",
      "type": "function"
    },
    {
      "inputs": [
        {
          "internalType": "bytes",
          "name": "journalData",
          "type": "bytes"
        },
        {
          "internalType": "bytes",
          "name": "seal",
          "type": "bytes"
        }
      ],
      "name": "buildMerkleTree",
      "outputs": [],
      "stateMutability": "payable",
      "type": "function"
    },
    {
      "inputs": [
        {
          "internalType": "uint128",
          "name": "_gas",
          "type": "uint128"
        },
        {
          "internalType": "uint128",
          "name": "_value",
          "type": "uint128"
        }
      ],
      "name": "createLzReceiveOption",
      "outputs": [
        {
          "internalType": "bytes",
          "name": "",
          "type": "bytes"
        }
      ],
      "stateMutability": "pure",
      "type": "function"
    },
    {
      "inputs": [],
      "name": "endpoint",
      "outputs": [
        {
          "internalType": "contract ILayerZeroEndpointV2",
          "name": "",
          "type": "address"
        }
      ],
      "stateMutability": "view",
      "type": "function"
    },
    {
      "inputs": [],
      "name": "imageId",
      "outputs": [
        {
          "internalType": "bytes32",
          "name": "",
          "type": "bytes32"
        }
      ],
      "stateMutability": "view",
      "type": "function"
    },
    {
      "inputs": [
        {
          "components": [
            {
              "internalType": "uint32",
              "name": "srcEid",
              "type": "uint32"
            },
            {
              "internalType": "bytes32",
              "name": "sender",
              "type": "bytes32"
            },
            {
              "internalType": "uint64",
              "name": "nonce",
              "type": "uint64"
            }
          ],
          "internalType": "struct Origin",
          "name": "",
          "type": "tuple"
        },
        {
          "internalType": "bytes",
          "name": "",
          "type": "bytes"
        },
        {
          "internalType": "address",
          "name": "_sender",
          "type": "address"
        }
      ],
      "name": "isComposeMsgSender",
      "outputs": [
        {
          "internalType": "bool",
          "name": "",
          "type": "bool"
        }
      ],
      "stateMutability": "view",
      "type": "function"
    },
    {
      "inputs": [
        {
          "components": [
            {
              "internalType": "uint32",
              "name": "srcEid",
              "type": "uint32"
            },
            {
              "internalType": "bytes32",
              "name": "sender",
              "type": "bytes32"
            },
            {
              "internalType": "uint64",
              "name": "nonce",
              "type": "uint64"
            }
          ],
          "internalType": "struct Origin",
          "name": "_origin",
          "type": "tuple"
        },
        {
          "internalType": "bytes32",
          "name": "_guid",
          "type": "bytes32"
        },
        {
          "internalType": "bytes",
          "name": "_message",
          "type": "bytes"
        },
        {
          "internalType": "address",
          "name": "_executor",
          "type": "address"
        },
        {
          "internalType": "bytes",
          "name": "_extraData",
          "type": "bytes"
        }
      ],
      "name": "lzReceive",
      "outputs": [],
      "stateMutability": "payable",
      "type": "function"
    },
    {
      "inputs": [
        {
          "internalType": "uint32",
          "name": "",
          "type": "uint32"
        },
        {
          "internalType": "bytes32",
          "name": "",
          "type": "bytes32"
        }
      ],
      "name": "nextNonce",
      "outputs": [
        {
          "internalType": "uint64",
          "name": "nonce",
          "type": "uint64"
        }
      ],
      "stateMutability": "view",
      "type": "function"
    },
    {
      "inputs": [],
      "name": "oAppVersion",
      "outputs": [
        {
          "internalType": "uint64",
          "name": "senderVersion",
          "type": "uint64"
        },
        {
          "internalType": "uint64",
          "name": "receiverVersion",
          "type": "uint64"
        }
      ],
      "stateMutability": "pure",
      "type": "function"
    },
    {
      "inputs": [],
      "name": "owner",
      "outputs": [
        {
          "internalType": "address",
          "name": "",
          "type": "address"
        }
      ],
      "stateMutability": "view",
      "type": "function"
    },
    {
      "inputs": [
        {
          "internalType": "uint32",
          "name": "eid",
          "type": "uint32"
        }
      ],
      "name": "peers",
      "outputs": [
        {
          "internalType": "bytes32",
          "name": "peer",
          "type": "bytes32"
        }
      ],
      "stateMutability": "view",
      "type": "function"
    },
    {
      "inputs": [
        {
          "internalType": "uint32",
          "name": "_dstEid",
          "type": "uint32"
        },
        {
          "internalType": "string",
          "name": "_message",
          "type": "string"
        },
        {
          "internalType": "bytes",
          "name": "_options",
          "type": "bytes"
        },
        {
          "internalType": "bool",
          "name": "_payInLzToken",
          "type": "bool"
        }
      ],
      "name": "quote",
      "outputs": [
        {
          "components": [
            {
              "internalType": "uint256",
              "name": "nativeFee",
              "type": "uint256"
            },
            {
              "internalType": "uint256",
              "name": "lzTokenFee",
              "type": "uint256"
            }
          ],
          "internalType": "struct MessagingFee",
          "name": "f",
          "type": "tuple"
        }
      ],
      "stateMutability": "view",
      "type": "function"
    },
    {
      "inputs": [],
      "name": "readElements",
      "outputs": [
        {
          "internalType": "uint256[]",
          "name": "",
          "type": "uint256[]"
        }
      ],
      "stateMutability": "view",
      "type": "function"
    },
    {
      "inputs": [],
      "name": "renounceOwnership",
      "outputs": [],
      "stateMutability": "nonpayable",
      "type": "function"
    },
    {
      "inputs": [
        {
          "internalType": "uint32",
          "name": "_dstEid",
          "type": "uint32"
        },
        {
          "internalType": "string",
          "name": "_message",
          "type": "string"
        },
        {
          "internalType": "bytes",
          "name": "_options",
          "type": "bytes"
        }
      ],
      "name": "send",
      "outputs": [
        {
          "components": [
            {
              "internalType": "bytes32",
              "name": "guid",
              "type": "bytes32"
            },
            {
              "internalType": "uint64",
              "name": "nonce",
              "type": "uint64"
            },
            {
              "components": [
                {
                  "internalType": "uint256",
                  "name": "nativeFee",
                  "type": "uint256"
                },
                {
                  "internalType": "uint256",
                  "name": "lzTokenFee",
                  "type": "uint256"
                }
              ],
              "internalType": "struct MessagingFee",
              "name": "fee",
              "type": "tuple"
            }
          ],
          "internalType": "struct MessagingReceipt",
          "name": "receipt",
          "type": "tuple"
        }
      ],
      "stateMutability": "payable",
      "type": "function"
    },
    {
      "inputs": [
        {
          "internalType": "address",
          "name": "_delegate",
          "type": "address"
        }
      ],
      "name": "setDelegate",
      "outputs": [],
      "stateMutability": "nonpayable",
      "type": "function"
    },
    {
      "inputs": [
        {
          "internalType": "uint32",
          "name": "_eid",
          "type": "uint32"
        },
        {
          "internalType": "bytes32",
          "name": "_peer",
          "type": "bytes32"
        }
      ],
      "name": "setPeer",
      "outputs": [],
      "stateMutability": "nonpayable",
      "type": "function"
    },
    {
      "inputs": [
        {
          "internalType": "address",
          "name": "newOwner",
          "type": "address"
        }
      ],
      "name": "transferOwnership",
      "outputs": [],
      "stateMutability": "nonpayable",
      "type": "function"
    },
    {
      "inputs": [],
      "name": "verifier",
      "outputs": [
        {
          "internalType": "contract IRiscZeroVerifier",
          "name": "",
          "type": "address"
        }
      ],
      "stateMutability": "view",
      "type": "function"
    }
  ],
  "transactionHash": "0xf0d4cde03c1f40df0d73d226c8ee7fc3b5cd7b678776dae344414e53a86d7bbf",
  "args": [
    "0x6EDCE65403992e310A62460808c4b910D972f10f",
    "0x11A083ead9814a6D5DbB1929574672A185f79504",
    "0xc88b70e1EBd5c39A7BFbA4E41DC9e6C5ffcA6A95"
  ],
  "numDeployments": 1,
  "solcInputHash": "f0d74b4683c4c3d44325e8bdff48eb12",
  "bytecode": "0x60c06040523480156200001157600080fd5b5060405162001c4e38038062001c4e83398101604081905262000034916200022a565b82828181806001600160a01b0381166200006857604051631e4fbdf760e01b81526000600482015260240160405180910390fd5b62000073816200014f565b506001600160a01b038083166080528116620000a257604051632d618d8160e21b815260040160405180910390fd5b60805160405163ca5eb5e160e01b81526001600160a01b0383811660048301529091169063ca5eb5e190602401600060405180830381600087803b158015620000ea57600080fd5b505af1158015620000ff573d6000803e3d6000fd5b505050506001600160a01b03851660a052505060408051606081018252600a81526103e86020820152620186a0918101919091526200014592506002915060036200019f565b5050505062000274565b600080546001600160a01b038381166001600160a01b0319831681178455604051919092169283917f8be0079c531659141344cd1fd0a4f28419497f9722a3daafe3b4186f6b6457e09190a35050565b828054828255906000526020600020908101928215620001e4579160200282015b82811115620001e4578251829062ffffff16905591602001919060010190620001c0565b50620001f2929150620001f6565b5090565b5b80821115620001f25760008155600101620001f7565b80516001600160a01b03811681146200022557600080fd5b919050565b6000806000606084860312156200024057600080fd5b6200024b846200020d565b92506200025b602085016200020d565b91506200026b604085016200020d565b90509250925092565b60805160a051611983620002cb6000396000818161018901526106110152600081816102080152818161042001528181610771015281816109de01528181610b7a01528181610c680152610d2101526119836000f3fe6080604052600436106101145760003560e01c806382413eac116100a0578063e0539e5811610064578063e0539e581461035d578063ef3f7dd51461037d578063f2fde38b146103b1578063f77e5dd3146103d1578063ff7bd03d146103fe57600080fd5b806382413eac146102785780638da5cb5b146102b7578063bb0b6a53146102d5578063c72242b214610310578063ca5eb5e11461033d57600080fd5b80633400288b116100e75780633400288b146101c3578063592fc6d5146101e35780635e280f11146101f6578063715018a61461022a5780637d25a05e1461023f57600080fd5b806313137d651461011957806317442b701461012e5780631f2e84b9146101555780632b7ac3f314610177575b600080fd5b61012c610127366004611134565b61041e565b005b34801561013a57600080fd5b50604080516001815260026020820152015b60405180910390f35b34801561016157600080fd5b5061016a6104cf565b60405161014c91906111d4565b34801561018357600080fd5b506101ab7f000000000000000000000000000000000000000000000000000000000000000081565b6040516001600160a01b03909116815260200161014c565b3480156101cf57600080fd5b5061012c6101de366004611231565b610527565b61012c6101f136600461125b565b61053d565b34801561020257600080fd5b506101ab7f000000000000000000000000000000000000000000000000000000000000000081565b34801561023657600080fd5b5061012c6106f2565b34801561024b57600080fd5b5061025f61025a366004611231565b610706565b60405167ffffffffffffffff909116815260200161014c565b34801561028457600080fd5b506102a76102933660046112c7565b6001600160a01b0381163014949350505050565b604051901515815260200161014c565b3480156102c357600080fd5b506000546001600160a01b03166101ab565b3480156102e157600080fd5b506103026102f036600461132e565b60016020526000908152604090205481565b60405190815260200161014c565b34801561031c57600080fd5b5061033061032b366004611360565b61070f565b60405161014c91906113e3565b34801561034957600080fd5b5061012c6103583660046113f6565b61074a565b61037061036b3660046114df565b6107d0565b60405161014c9190611553565b34801561038957600080fd5b506103027fa07925251fdb1d5a2611d8c8f2d21867b6deae9888430e3bddc3fe0fdf03b44e81565b3480156103bd57600080fd5b5061012c6103cc3660046113f6565b61082b565b3480156103dd57600080fd5b506103f16103ec3660046115a4565b610869565b60405161014c9190611620565b34801561040a57600080fd5b506102a7610419366004611637565b6108b7565b7f00000000000000000000000000000000000000000000000000000000000000006001600160a01b0316331461046e576040516391ac5e4f60e01b81523360048201526024015b60405180910390fd5b6020870180359061048890610483908a61132e565b6108ed565b146104c65761049a602088018861132e565b60405163309afaf360e21b815263ffffffff909116600482015260208801356024820152604401610465565b50505050505050565b6060600280548060200260200160405190810160405280929190818152602001828054801561051d57602002820191906000526020600020905b815481526020019060010190808311610509575b5050505050905090565b61052f610929565b6105398282610956565b5050565b610545610929565b600061055384860186611653565b8051805160209091015191925040146105a35760405162461bcd60e51b8152602060048201526012602482015271125b9d985b1a590818dbdb5b5a5d1b595b9d60721b6044820152606401610465565b6000600286866040516105b79291906116ac565b602060405180830381855afa1580156105d4573d6000803e3d6000fd5b5050506040513d601f19601f820116820180604052508101906105f791906116bc565b60405163ab750e7560e01b81529091506001600160a01b037f0000000000000000000000000000000000000000000000000000000000000000169063ab750e759061066c90879087907fa07925251fdb1d5a2611d8c8f2d21867b6deae9888430e3bddc3fe0fdf03b44e9087906004016116d5565b60006040518083038186803b15801561068457600080fd5b505afa158015610698573d6000803e3d6000fd5b505050506104c6619ce183602001516040516020016106b991815260200190565b6040516020818303038152906040526106d662030d40600061070f565b60405180604001604052803481526020016000815250336109ab565b6106fa610929565b6107046000610ab6565b565b60005b92915050565b6060610743838361073c60408051600360f01b602082015281516002818303018152602290910190915290565b9190610b06565b9392505050565b610752610929565b60405163ca5eb5e160e01b81526001600160a01b0382811660048301527f0000000000000000000000000000000000000000000000000000000000000000169063ca5eb5e190602401600060405180830381600087803b1580156107b557600080fd5b505af11580156107c9573d6000803e3d6000fd5b5050505050565b6107d8611076565b6107e0610929565b6000836040516020016107f391906113e3565b60408051601f1981840301815282820190915234825260006020830152915061082290869083908690336109ab565b95945050505050565b610833610929565b6001600160a01b03811661085d57604051631e4fbdf760e01b815260006004820152602401610465565b61086681610ab6565b50565b604080518082019091526000808252602082015260008460405160200161089091906113e3565b60405160208183030381529060405290506108ad86828686610b64565b9695505050505050565b60006020820180359060019083906108cf908661132e565b63ffffffff1681526020810191909152604001600020541492915050565b63ffffffff8116600090815260016020526040812054806107095760405163f6ff4fb760e01b815263ffffffff84166004820152602401610465565b6000546001600160a01b031633146107045760405163118cdaa760e01b8152336004820152602401610465565b63ffffffff8216600081815260016020908152604091829020849055815192835282018390527f238399d427b947898edb290f5ff0f9109849b1c3ba196a42e35f00c50a54b98b910160405180910390a15050565b6109b3611076565b60006109c28460000151610c3c565b6020850151909150156109dc576109dc8460200151610c64565b7f00000000000000000000000000000000000000000000000000000000000000006001600160a01b0316632637a450826040518060a001604052808b63ffffffff168152602001610a2c8c6108ed565b81526020018a815260200189815260200160008960200151111515815250866040518463ffffffff1660e01b8152600401610a68929190611715565b60806040518083038185885af1158015610a86573d6000803e3d6000fd5b50505050506040513d601f19601f82011682018060405250810190610aab91906117be565b979650505050505050565b600080546001600160a01b038381166001600160a01b0319831681178455604051919092169283917f8be0079c531659141344cd1fd0a4f28419497f9722a3daafe3b4186f6b6457e09190a35050565b6060836003610b16826000610d46565b61ffff1614610b4a57610b2a816000610d46565b604051633a51740d60e01b815261ffff9091166004820152602401610465565b6000610b568585610da3565b90506108ad86600183610e1c565b60408051808201909152600080825260208201527f00000000000000000000000000000000000000000000000000000000000000006001600160a01b031663ddc28c586040518060a001604052808863ffffffff168152602001610bc7896108ed565b8152602001878152602001868152602001851515815250306040518363ffffffff1660e01b8152600401610bfc929190611715565b6040805180830381865afa158015610c18573d6000803e3d6000fd5b505050506040513d601f19601f820116820180604052508101906108229190611830565b6000813414610c60576040516304fb820960e51b8152346004820152602401610465565b5090565b60007f00000000000000000000000000000000000000000000000000000000000000006001600160a01b031663e4fe1d946040518163ffffffff1660e01b8152600401602060405180830381865afa158015610cc4573d6000803e3d6000fd5b505050506040513d601f19601f82011682018060405250810190610ce8919061184c565b90506001600160a01b038116610d11576040516329b99a9560e11b815260040160405180910390fd5b6105396001600160a01b038216337f000000000000000000000000000000000000000000000000000000000000000085610e87565b6000610d5382600261187f565b83511015610d9a5760405162461bcd60e51b8152602060048201526014602482015273746f55696e7431365f6f75744f66426f756e647360601b6044820152606401610465565b50016002015190565b60606001600160801b03821615610deb57604080516001600160801b0319608086811b8216602084015285901b16603082015201604051602081830303815290604052610743565b6040516001600160801b0319608085901b166020820152603001604051602081830303815290604052905092915050565b6060836003610e2c826000610d46565b61ffff1614610e4057610b2a816000610d46565b846001610e4d8551610ee7565b610e58906001611892565b8686604051602001610e6e9594939291906118ad565b6040516020818303038152906040529150509392505050565b604080516001600160a01b0385811660248301528416604482015260648082018490528251808303909101815260849091019091526020810180516001600160e01b03166323b872dd60e01b179052610ee1908590610f16565b50505050565b600061ffff821115610c60576040516306dfcc6560e41b81526010600482015260248101839052604401610465565b6000610f2b6001600160a01b03841683610f7e565b90508051600014158015610f50575080806020019051810190610f4e9190611914565b155b15610f7957604051635274afe760e01b81526001600160a01b0384166004820152602401610465565b505050565b60606107438383600084600080856001600160a01b03168486604051610fa49190611931565b60006040518083038185875af1925050503d8060008114610fe1576040519150601f19603f3d011682016040523d82523d6000602084013e610fe6565b606091505b50915091506108ad868383606082611006576110018261104d565b610743565b815115801561101d57506001600160a01b0384163b155b1561104657604051639996b31560e01b81526001600160a01b0385166004820152602401610465565b5080610743565b80511561105d5780518082602001fd5b604051630a12f52160e11b815260040160405180910390fd5b604051806060016040528060008019168152602001600067ffffffffffffffff1681526020016110b9604051806040016040528060008152602001600081525090565b905290565b6000606082840312156110d057600080fd5b50919050565b60008083601f8401126110e857600080fd5b50813567ffffffffffffffff81111561110057600080fd5b60208301915083602082850101111561111857600080fd5b9250929050565b6001600160a01b038116811461086657600080fd5b600080600080600080600060e0888a03121561114f57600080fd5b61115989896110be565b965060608801359550608088013567ffffffffffffffff8082111561117d57600080fd5b6111898b838c016110d6565b909750955060a08a0135915061119e8261111f565b90935060c089013590808211156111b457600080fd5b506111c18a828b016110d6565b989b979a50959850939692959293505050565b6020808252825182820181905260009190848201906040850190845b8181101561120c578351835292840192918401916001016111f0565b50909695505050505050565b803563ffffffff8116811461122c57600080fd5b919050565b6000806040838503121561124457600080fd5b61124d83611218565b946020939093013593505050565b6000806000806040858703121561127157600080fd5b843567ffffffffffffffff8082111561128957600080fd5b611295888389016110d6565b909650945060208701359150808211156112ae57600080fd5b506112bb878288016110d6565b95989497509550505050565b60008060008060a085870312156112dd57600080fd5b6112e786866110be565b9350606085013567ffffffffffffffff81111561130357600080fd5b61130f878288016110d6565b90945092505060808501356113238161111f565b939692955090935050565b60006020828403121561134057600080fd5b61074382611218565b80356001600160801b038116811461122c57600080fd5b6000806040838503121561137357600080fd5b61137c83611349565b915061138a60208401611349565b90509250929050565b60005b838110156113ae578181015183820152602001611396565b50506000910152565b600081518084526113cf816020860160208601611393565b601f01601f19169290920160200192915050565b60208152600061074360208301846113b7565b60006020828403121561140857600080fd5b81356107438161111f565b634e487b7160e01b600052604160045260246000fd5b6040805190810167ffffffffffffffff8111828210171561144c5761144c611413565b60405290565b600082601f83011261146357600080fd5b813567ffffffffffffffff8082111561147e5761147e611413565b604051601f8301601f19908116603f011681019082821181831017156114a6576114a6611413565b816040528381528660208588010111156114bf57600080fd5b836020870160208301376000602085830101528094505050505092915050565b6000806000606084860312156114f457600080fd5b6114fd84611218565b9250602084013567ffffffffffffffff8082111561151a57600080fd5b61152687838801611452565b9350604086013591508082111561153c57600080fd5b5061154986828701611452565b9150509250925092565b60006080820190508251825267ffffffffffffffff6020840151166020830152604083015161158f604084018280518252602090810151910152565b5092915050565b801515811461086657600080fd5b600080600080608085870312156115ba57600080fd5b6115c385611218565b9350602085013567ffffffffffffffff808211156115e057600080fd5b6115ec88838901611452565b9450604087013591508082111561160257600080fd5b5061160f87828801611452565b925050606085013561132381611596565b815181526020808301519082015260408101610709565b60006060828403121561164957600080fd5b61074383836110be565b6000818303606081121561166657600080fd5b61166e611429565b604082121561167c57600080fd5b611684611429565b9150833582526020840135602083015281815260408401356020820152809250505092915050565b8183823760009101908152919050565b6000602082840312156116ce57600080fd5b5051919050565b606081528360608201528385608083013760006080858301015260006080601f19601f870116830101905083602083015282604083015295945050505050565b6040815263ffffffff8351166040820152602083015160608201526000604084015160a0608084015261174b60e08401826113b7565b90506060850151603f198483030160a085015261176882826113b7565b60809690960151151560c08501525050506001600160a01b039190911660209091015290565b6000604082840312156117a057600080fd5b6117a8611429565b9050815181526020820151602082015292915050565b6000608082840312156117d057600080fd5b6040516060810167ffffffffffffffff82821081831117156117f4576117f4611413565b816040528451835260208501519150808216821461181157600080fd5b506020820152611824846040850161178e565b60408201529392505050565b60006040828403121561184257600080fd5b610743838361178e565b60006020828403121561185e57600080fd5b81516107438161111f565b634e487b7160e01b600052601160045260246000fd5b8082018082111561070957610709611869565b61ffff81811683821601908082111561158f5761158f611869565b600086516118bf818460208b01611393565b6001600160f81b031960f888811b82169285019283526001600160f01b031960f089901b16600184015286901b1660038201528351611905816004840160208801611393565b01600401979650505050505050565b60006020828403121561192657600080fd5b815161074381611596565b60008251611943818460208701611393565b919091019291505056fea264697066735822122064b358bcfa2dc055856a14a668536f6e03341e95335e2ea3b27c1326807a45d764736f6c63430008160033",
  "devdoc": {
    "errors": {
      "AddressEmptyCode(address)": [
        {
          "details": "There's no code at `target` (it is not a contract)."
        }
      ],
      "AddressInsufficientBalance(address)": [
        {
          "details": "The ETH balance of the account is not enough to perform the operation."
        }
      ],
      "FailedInnerCall()": [
        {
          "details": "A call to an address target failed. The target may have reverted."
        }
      ],
      "OwnableInvalidOwner(address)": [
        {
          "details": "The owner is not a valid owner account. (eg. `address(0)`)"
        }
      ],
      "OwnableUnauthorizedAccount(address)": [
        {
          "details": "The caller account is not authorized to perform an operation."
        }
      ],
      "SafeCastOverflowedUintDowncast(uint8,uint256)": [
        {
          "details": "Value doesn't fit in an uint of `bits` size."
        }
      ],
      "SafeERC20FailedOperation(address)": [
        {
          "details": "An operation with an ERC20 token failed."
        }
      ]
    },
    "kind": "dev",
    "methods": {
      "allowInitializePath((uint32,bytes32,uint64))": {
        "details": "This indicates to the endpoint that the OApp has enabled msgs for this particular path to be received.This defaults to assuming if a peer has been set, its initialized. Can be overridden by the OApp if there is other logic to determine this.",
        "params": {
          "origin": "The origin information containing the source endpoint and sender address."
        },
        "returns": {
          "_0": "Whether the path has been initialized."
        }
      },
      "buildMerkleTree(bytes,bytes)": {
        "details": "The Steel proof must be generated off-chain using RISC0-zkVM and submitted here."
      },
      "isComposeMsgSender((uint32,bytes32,uint64),bytes,address)": {
        "details": "_origin The origin information containing the source endpoint and sender address.  - srcEid: The source chain endpoint ID.  - sender: The sender address on the src chain.  - nonce: The nonce of the message._message The lzReceive payload.Applications can optionally choose to implement separate composeMsg senders that are NOT the bridging layer.The default sender IS the OAppReceiver implementer.",
        "params": {
          "_sender": "The sender address."
        },
        "returns": {
          "_0": "isSender Is a valid sender."
        }
      },
      "lzReceive((uint32,bytes32,uint64),bytes32,bytes,address,bytes)": {
        "details": "Entry point for receiving messages or packets from the endpoint.Entry point for receiving msg/packet from the LayerZero endpoint.",
        "params": {
          "_executor": "The address of the executor for the received message.",
          "_extraData": "Additional arbitrary data provided by the corresponding executor.",
          "_guid": "The unique identifier for the received LayerZero message.",
          "_message": "The payload of the received message.",
          "_origin": "The origin information containing the source endpoint and sender address.  - srcEid: The source chain endpoint ID.  - sender: The sender address on the src chain.  - nonce: The nonce of the message."
        }
      },
      "nextNonce(uint32,bytes32)": {
        "details": "_srcEid The source endpoint ID._sender The sender address.The path nonce starts from 1. If 0 is returned it means that there is NO nonce ordered enforcement.Is required by the off-chain executor to determine the OApp expects msg execution is ordered.This is also enforced by the OApp.By default this is NOT enabled. ie. nextNonce is hardcoded to return 0.",
        "returns": {
          "nonce": "The next nonce."
        }
      },
      "oAppVersion()": {
        "returns": {
          "receiverVersion": "The version of the OAppReceiver.sol implementation.",
          "senderVersion": "The version of the OAppSender.sol implementation."
        }
      },
      "owner()": {
        "details": "Returns the address of the current owner."
      },
      "quote(uint32,string,bytes,bool)": {
        "params": {
          "_dstEid": "Destination chain's endpoint ID.",
          "_message": "The message.",
          "_options": "Message execution options (e.g., for sending gas to destination).",
          "_payInLzToken": "Whether to return fee in ZRO token."
        },
        "returns": {
          "f": "A `MessagingFee` struct containing the calculated gas fee in either the native token or ZRO token."
        }
      },
      "readElements()": {
        "details": "Read all elements from the array",
        "returns": {
          "_0": "array The entire array of bytes32 values"
        }
      },
      "renounceOwnership()": {
        "details": "Leaves the contract without owner. It will not be possible to call `onlyOwner` functions. Can only be called by the current owner. NOTE: Renouncing ownership will leave the contract without an owner, thereby disabling any functionality that is only available to the owner."
      },
      "send(uint32,string,bytes)": {
        "details": "Encodes the message as bytes and sends it using the `_lzSend` internal function.",
        "params": {
          "_dstEid": "The endpoint ID of the destination chain.",
          "_message": "The message string to be sent.",
          "_options": "Additional options for message execution."
        },
        "returns": {
          "receipt": "A `MessagingReceipt` struct containing details of the message sent."
        }
      },
      "setDelegate(address)": {
        "details": "Only the owner/admin of the OApp can call this function.Provides the ability for a delegate to set configs, on behalf of the OApp, directly on the Endpoint contract.",
        "params": {
          "_delegate": "The address of the delegate to be set."
        }
      },
      "setPeer(uint32,bytes32)": {
        "details": "Only the owner/admin of the OApp can call this function.Indicates that the peer is trusted to send LayerZero messages to this OApp.Set this to bytes32(0) to remove the peer address.Peer is a bytes32 to accommodate non-evm chains.",
        "params": {
          "_eid": "The endpoint ID.",
          "_peer": "The address of the peer to be associated with the corresponding endpoint."
        }
      },
      "transferOwnership(address)": {
        "details": "Transfers ownership of the contract to a new account (`newOwner`). Can only be called by the current owner."
      }
    },
    "version": 1
  },
  "userdoc": {
    "kind": "user",
    "methods": {
      "allowInitializePath((uint32,bytes32,uint64))": {
        "notice": "Checks if the path initialization is allowed based on the provided origin."
      },
      "buildMerkleTree(bytes,bytes)": {
        "notice": "Removes duplicates (if any) from the original array and returns the new array."
      },
      "endpoint()": {
        "notice": "Retrieves the LayerZero endpoint associated with the OApp."
      },
      "imageId()": {
        "notice": "Image ID of the only zkVM binary to accept verification from."
      },
      "isComposeMsgSender((uint32,bytes32,uint64),bytes,address)": {
        "notice": "Indicates whether an address is an approved composeMsg sender to the Endpoint."
      },
      "nextNonce(uint32,bytes32)": {
        "notice": "Retrieves the next nonce for a given source endpoint and sender address."
      },
      "oAppVersion()": {
        "notice": "Retrieves the OApp version information."
      },
      "peers(uint32)": {
        "notice": "Retrieves the peer (OApp) associated with a corresponding endpoint."
      },
      "quote(uint32,string,bytes,bool)": {
        "notice": "Quotes the gas needed to pay for the full omnichain transaction in native gas or ZRO token."
      },
      "send(uint32,string,bytes)": {
        "notice": "Sends a message from the source chain to a destination chain."
      },
      "setDelegate(address)": {
        "notice": "Sets the delegate address for the OApp."
      },
      "setPeer(uint32,bytes32)": {
        "notice": "Sets the peer address (OApp instance) for a corresponding endpoint."
      },
      "verifier()": {
        "notice": "RISC Zero verifier contract address."
      }
    },
    "version": 1
  },
  "storageLayout": {
    "storage": [
      {
        "astId": 2742,
        "contract": "contracts/PennyProofVerfiedAirdrop.sol:PennyProofVerfiedAirdrop",
        "label": "_owner",
        "offset": 0,
        "slot": "0",
        "type": "t_address"
      },
      {
        "astId": 539,
        "contract": "contracts/PennyProofVerfiedAirdrop.sol:PennyProofVerfiedAirdrop",
        "label": "peers",
        "offset": 0,
        "slot": "1",
        "type": "t_mapping(t_uint32,t_bytes32)"
      },
      {
        "astId": 6823,
        "contract": "contracts/PennyProofVerfiedAirdrop.sol:PennyProofVerfiedAirdrop",
        "label": "array",
        "offset": 0,
        "slot": "2",
        "type": "t_array(t_uint256)dyn_storage"
      }
    ],
    "types": {
      "t_address": {
        "encoding": "inplace",
        "label": "address",
        "numberOfBytes": "20"
      },
      "t_array(t_uint256)dyn_storage": {
        "base": "t_uint256",
        "encoding": "dynamic_array",
        "label": "uint256[]",
        "numberOfBytes": "32"
      },
      "t_bytes32": {
        "encoding": "inplace",
        "label": "bytes32",
        "numberOfBytes": "32"
      },
      "t_mapping(t_uint32,t_bytes32)": {
        "encoding": "mapping",
        "key": "t_uint32",
        "label": "mapping(uint32 => bytes32)",
        "numberOfBytes": "32",
        "value": "t_bytes32"
      },
      "t_uint256": {
        "encoding": "inplace",
        "label": "uint256",
        "numberOfBytes": "32"
      },
      "t_uint32": {
        "encoding": "inplace",
        "label": "uint32",
        "numberOfBytes": "4"
      }
    }
  }
}