{
  "address": "0xf98ac456e70133bEb29D8cCA0449F40ceB75f58d",
  "abi": [
    {
      "inputs": [
        {
          "internalType": "bytes32",
          "name": "control_root",
          "type": "bytes32"
        },
        {
          "internalType": "bytes32",
          "name": "bn254_control_id",
          "type": "bytes32"
        }
      ],
      "stateMutability": "nonpayable",
      "type": "constructor"
    },
    {
      "inputs": [
        {
          "internalType": "uint8",
          "name": "bits",
          "type": "uint8"
        },
        {
          "internalType": "uint256",
          "name": "value",
          "type": "uint256"
        }
      ],
      "name": "SafeCastOverflowedUintDowncast",
      "type": "error"
    },
    {
      "inputs": [
        {
          "internalType": "bytes4",
          "name": "received",
          "type": "bytes4"
        },
        {
          "internalType": "bytes4",
          "name": "expected",
          "type": "bytes4"
        }
      ],
      "name": "SelectorMismatch",
      "type": "error"
    },
    {
      "inputs": [],
      "name": "VerificationFailed",
      "type": "error"
    },
    {
      "inputs": [],
      "name": "BN254_CONTROL_ID",
      "outputs": [
        {
          "internalType": "bytes32",
          "name": "",
          "type": "bytes32"
        }
      ],
      "stateMutability": "view",
      "type": "function"
    },
    {
      "inputs": [],
      "name": "CONTROL_ROOT_0",
      "outputs": [
        {
          "internalType": "bytes16",
          "name": "",
          "type": "bytes16"
        }
      ],
      "stateMutability": "view",
      "type": "function"
    },
    {
      "inputs": [],
      "name": "CONTROL_ROOT_1",
      "outputs": [
        {
          "internalType": "bytes16",
          "name": "",
          "type": "bytes16"
        }
      ],
      "stateMutability": "view",
      "type": "function"
    },
    {
      "inputs": [],
      "name": "SELECTOR",
      "outputs": [
        {
          "internalType": "bytes4",
          "name": "",
          "type": "bytes4"
        }
      ],
      "stateMutability": "view",
      "type": "function"
    },
    {
      "inputs": [
        {
          "internalType": "bytes",
          "name": "seal",
          "type": "bytes"
        },
        {
          "internalType": "bytes32",
          "name": "imageId",
          "type": "bytes32"
        },
        {
          "internalType": "bytes32",
          "name": "journalDigest",
          "type": "bytes32"
        }
      ],
      "name": "verify",
      "outputs": [],
      "stateMutability": "view",
      "type": "function"
    },
    {
      "inputs": [
        {
          "components": [
            {
              "internalType": "bytes",
              "name": "seal",
              "type": "bytes"
            },
            {
              "internalType": "bytes32",
              "name": "claimDigest",
              "type": "bytes32"
            }
          ],
          "internalType": "struct Receipt",
          "name": "receipt",
          "type": "tuple"
        }
      ],
      "name": "verifyIntegrity",
      "outputs": [],
      "stateMutability": "view",
      "type": "function"
    },
    {
      "inputs": [
        {
          "internalType": "uint256[2]",
          "name": "_pA",
          "type": "uint256[2]"
        },
        {
          "internalType": "uint256[2][2]",
          "name": "_pB",
          "type": "uint256[2][2]"
        },
        {
          "internalType": "uint256[2]",
          "name": "_pC",
          "type": "uint256[2]"
        },
        {
          "internalType": "uint256[5]",
          "name": "_pubSignals",
          "type": "uint256[5]"
        }
      ],
      "name": "verifyProof",
      "outputs": [
        {
          "internalType": "bool",
          "name": "",
          "type": "bool"
        }
      ],
      "stateMutability": "view",
      "type": "function"
    }
  ],
  "transactionHash": "0x9d238d5b9d3bb5b29036ec373d0fbb9ed934806cd473e9f7067cd4895a4f0b69",
  "args": [
    "0xa0de344ee9c81b8ebdd6e7d48632403cd5760478d86c9936731162bd90d35b38",
    "0x93b5d43a379e178e8e3fafbbd6830f2e87a26e94b917aa71408c8bfbfad292ae"
  ],
  "numDeployments": 1,
  "solcInputHash": "bb144e332bbbd5fcc9c9a05ecc7d3c99",
  "bytecode": "0x6101006040523480156200001257600080fd5b506040516200260838038062002608833981016040819052620000359162001101565b6200004082620002d2565b6001600160801b031990811660a0521660805260c08190526040517f72697363302e47726f74683136526563656970745665726966696572506172618152656d657465727360d01b60208201526002908190602601602060405180830381855afa158015620000b3573d6000803e3d6000fd5b5050506040513d601f19601f82011682018060405250810190620000d8919062001126565b836200022a8460008190506008817eff00ff00ff00ff00ff00ff00ff00ff00ff00ff00ff00ff00ff00ff00ff00ff16901b6008827fff00ff00ff00ff00ff00ff00ff00ff00ff00ff00ff00ff00ff00ff00ff00ff0016901c1790506010817dffff0000ffff0000ffff0000ffff0000ffff0000ffff0000ffff0000ffff16901b6010827fffff0000ffff0000ffff0000ffff0000ffff0000ffff0000ffff0000ffff000016901c1790506020817bffffffff00000000ffffffff00000000ffffffff00000000ffffffff16901b6020827fffffffff00000000ffffffff00000000ffffffff00000000ffffffff0000000016901c17905060408177ffffffffffffffff0000000000000000ffffffffffffffff16901b6040827fffffffffffffffff0000000000000000ffffffffffffffff000000000000000016901c179050608081901b608082901c179050919050565b6200023462000441565b60408051602081019590955284019290925260608301526080820152600360f81b60a082015260a20160408051601f1981840301815290829052620002799162001172565b602060405180830381855afa15801562000297573d6000803e3d6000fd5b5050506040513d601f19601f82011682018060405250810190620002bc919062001126565b6001600160e01b03191660e052506200121e9050565b60008080620004278460008190506008817eff00ff00ff00ff00ff00ff00ff00ff00ff00ff00ff00ff00ff00ff00ff00ff16901b6008827fff00ff00ff00ff00ff00ff00ff00ff00ff00ff00ff00ff00ff00ff00ff00ff0016901c1790506010817dffff0000ffff0000ffff0000ffff0000ffff0000ffff0000ffff0000ffff16901b6010827fffff0000ffff0000ffff0000ffff0000ffff0000ffff0000ffff0000ffff000016901c1790506020817bffffffff00000000ffffffff00000000ffffffff00000000ffffffff16901b6020827fffffffff00000000ffffffff00000000ffffffff00000000ffffffff0000000016901c17905060408177ffffffffffffffff0000000000000000ffffffffffffffff16901b6040827fffffffffffffffff0000000000000000ffffffffffffffff000000000000000016901c179050608081901b608082901c179050919050565b608081901b956001600160801b0319909116945092505050565b60408051600680825260e082019092526000918291906020820160c08036833701905050905060027f12ac9a25dcd5e1a832a9061a082c15dd1d61aa9c4d553505739d0f5d65dc3be47f025aa744581ebe7ad91731911c898569106ff5a2d30f3eee2b23c60ee980acd4604051602001620004c6929190918252602082015260400190565b60408051601f1981840301815290829052620004e29162001172565b602060405180830381855afa15801562000500573d6000803e3d6000fd5b5050506040513d601f19601f8201168201806040525081019062000525919062001126565b816000815181106200053b576200053b62001187565b60200260200101818152505060027f0707b920bc978c02f292fae2036e057be54294114ccc3c8769d883f688a1423f7f2e32a094b7589554f7bc357bf63481acd2d55555c203383782a4650787ff6642604051602001620005a6929190918252602082015260400190565b60408051601f1981840301815290829052620005c29162001172565b602060405180830381855afa158015620005e0573d6000803e3d6000fd5b5050506040513d601f19601f8201168201806040525081019062000605919062001126565b816001815181106200061b576200061b62001187565b60200260200101818152505060027f0bca36e2cbe6394b3e249751853f961511011c7148e336f4fd974644850fc3477f2ede7c9acf48cf3a3729fa3d68714e2a8435d4fa6db8f7f409c153b1fcdf9b8b60405160200162000686929190918252602082015260400190565b60408051601f1981840301815290829052620006a29162001172565b602060405180830381855afa158015620006c0573d6000803e3d6000fd5b5050506040513d601f19601f82011682018060405250810190620006e5919062001126565b81600281518110620006fb57620006fb62001187565b60200260200101818152505060027f1b8af999dbfbb3927c091cc2aaf201e488cbacc3e2c6b6fb5a25f9112e04f2a77f2b91a26aa92e1b6f5722949f192a81c850d586d81a60157f3e9cf04f679cccd660405160200162000766929190918252602082015260400190565b60408051601f1981840301815290829052620007829162001172565b602060405180830381855afa158015620007a0573d6000803e3d6000fd5b5050506040513d601f19601f82011682018060405250810190620007c5919062001126565b81600381518110620007db57620007db62001187565b60200260200101818152505060027f2b5f494ed674235b8ac1750bdfd5a7615f002d4a1dcefeddd06eda5a076ccd0d7f2fe520ad2020aab9cbba817fcbb9a863b8a76ff88f14f912c5e71665b2ad5e8260405160200162000846929190918252602082015260400190565b60408051601f1981840301815290829052620008629162001172565b602060405180830381855afa15801562000880573d6000803e3d6000fd5b5050506040513d601f19601f82011682018060405250810190620008a5919062001126565b81600481518110620008bb57620008bb62001187565b60200260200101818152505060027f0f1c3c0d5d9da0fa03666843cde4e82e869ba5252fce3c25d5940320b1c4d4937f214bfcff74f425f6fe8c0d07b307482d8bc8bb2f3608f68287aa01bd0b69e80960405160200162000926929190918252602082015260400190565b60408051601f1981840301815290829052620009429162001172565b602060405180830381855afa15801562000960573d6000803e3d6000fd5b5050506040513d601f19601f8201168201806040525081019062000985919062001126565b816005815181106200099b576200099b62001187565b602002602001018181525050600280604051620009db907f72697363305f67726f746831362e566572696679696e674b65790000000000008152601a0190565b602060405180830381855afa158015620009f9573d6000803e3d6000fd5b5050506040513d601f19601f8201168201806040525081019062000a1e919062001126565b60027f2d4d9aa7e302d9df41749d5507949d05dbea33fbb16c643b22f599a2be6df2e27f14bedd503c37ceb061d8ec60209fe345ce89830a19230301f076caff004d192660405160200162000a7d929190918252602082015260400190565b60408051601f198184030181529082905262000a999162001172565b602060405180830381855afa15801562000ab7573d6000803e3d6000fd5b5050506040513d601f19601f8201168201806040525081019062000adc919062001126565b604080517f0967032fcbf776d1afc985f88877f182d38480a653f2decaa9794cbc3bf3060c60208201527f0e187847ad4c798374d0d6732bf501847dd68bc0e071241e0213bc7fc13db7ab918101919091527f304cfbd1e08a704a99f5e847d93f8c3caafddec46b7a0d379da69a4d112346a760608201527f1739c1b1a457a8c7313123d24d2f9192f896b7c63eea05a9d57f06547ad0cec8608082015260029060a00160408051601f198184030181529082905262000b9c9162001172565b602060405180830381855afa15801562000bba573d6000803e3d6000fd5b5050506040513d601f19601f8201168201806040525081019062000bdf919062001126565b604080517f198e9393920d483a7260bfb731fb5d25f1aa493335a9e71297e485b7aef312c260208201527f1800deef121f1e76426a00665e5c4479674322d4f75edadd46debd5cd992f6ed918101919091527f090689d0585ff075ec9e99ad690c3395bc4b313370b38ef355acdadcd122975b60608201527f12c85ea5db8c6deb4aab71808dcb408fe3d1e7690c43d37b4ce6cc0166fa7daa608082015260029060a00160408051601f198184030181529082905262000c9f9162001172565b602060405180830381855afa15801562000cbd573d6000803e3d6000fd5b5050506040513d601f19601f8201168201806040525081019062000ce2919062001126565b604080517f03b03cd5effa95ac9bee94f1f5ef907157bda4812ccf0b4c91f42bb629f83a1c60208201527f1aa085ff28179a12d922dba0547057ccaae94b9d69cfaa4e60401fea7f3e0333918101919091527f110c10134f200b19f6490846d518c9aea868366efb7228ca5c91d2940d03076260608201527f1e60f31fcbf757e837e867178318832d0b2d74d59e2fea1c7142df187d3fc6d3608082015260029060a00160408051601f198184030181529082905262000da29162001172565b602060405180830381855afa15801562000dc0573d6000803e3d6000fd5b5050506040513d601f19601f8201168201806040525081019062000de5919062001126565b62000e66600260405162000e1c907f72697363305f67726f746831362e566572696679696e674b65792e49430000008152601d0190565b602060405180830381855afa15801562000e3a573d6000803e3d6000fd5b5050506040513d601f19601f8201168201806040525081019062000e5f919062001126565b8862000f01565b6040805160208101979097528601949094526060850192909252608084015260a083015260c0820152600560f81b60e082015260e20160408051601f198184030181529082905262000eb89162001172565b602060405180830381855afa15801562000ed6573d6000803e3d6000fd5b5050506040513d601f19601f8201168201806040525081019062000efb919062001126565b91505090565b600080805b835181101562000f665762000f5b8585836001885162000f2791906200119d565b62000f3391906200119d565b8151811062000f465762000f4662001187565b60200260200101518462000f7060201b60201c565b915060010162000f06565b5090505b92915050565b60408051600280825260608201835260009283929190602083019080368337019050509050838160008151811062000fac5762000fac62001187565b602002602001018181525050828160018151811062000fcf5762000fcf62001187565b602090810291909101015262000fe6858262000fef565b95945050505050565b604080516000808252602082019092526200100c84848362001014565b949350505050565b600080620010298451620010c960201b60201c565b9050600060088261ffff16901c60088361ffff16901b1760f01b9050600286868684604051602001620010609493929190620011bf565b60408051601f19818403018152908290526200107c9162001172565b602060405180830381855afa1580156200109a573d6000803e3d6000fd5b5050506040513d601f19601f82011682018060405250810190620010bf919062001126565b9695505050505050565b600061ffff821115620010fd576040516306dfcc6560e41b8152601060048201526024810183905260440160405180910390fd5b5090565b600080604083850312156200111557600080fd5b505080516020909101519092909150565b6000602082840312156200113957600080fd5b5051919050565b6000815160005b8181101562001163576020818501810151868301520162001147565b50600093019283525090919050565b600062001180828462001140565b9392505050565b634e487b7160e01b600052603260045260246000fd5b8181038181111562000f6a57634e487b7160e01b600052601160045260246000fd5b8481526000602080830186516020880160005b82811015620011f057815184529284019290840190600101620011d2565b505050620011ff818762001140565b6001600160f01b03199590951685525050600290920195945050505050565b60805160a05160c05160e05161138f62001279600039600081816087015281816107df015261084401526000818160e1015261091d01526000818161013901526108e401526000818161017901526108bc015261138f6000f3fe608060405234801561001057600080fd5b506004361061007d5760003560e01c806334baeab91161005b57806334baeab9146101115780638989fa2e146101345780639181e4b114610174578063ab750e751461019b57600080fd5b8063053c238d146100825780631599ead5146100c7578063258038e2146100dc575b600080fd5b6100a97f000000000000000000000000000000000000000000000000000000000000000081565b6040516001600160e01b031990911681526020015b60405180910390f35b6100da6100d5366004610ee3565b6101ae565b005b6101037f000000000000000000000000000000000000000000000000000000000000000081565b6040519081526020016100be565b61012461011f366004610f36565b6101c8565b60405190151581526020016100be565b61015b7f000000000000000000000000000000000000000000000000000000000000000081565b6040516001600160801b031990911681526020016100be565b61015b7f000000000000000000000000000000000000000000000000000000000000000081565b6100da6101a9366004610f9c565b61079a565b6101c56101bb828061101b565b83602001356107bc565b50565b6000610728565b7f30644e72e131a029b85045b68181585d2833e84879b9709143e1f593f000000181106101c5576000805260206000f35b600060405183815284602082015285604082015260408160608360076107d05a03fa915081610233576000805260206000f35b825160408201526020830151606082015260408360808360066107d05a03fa91505080610264576000805260206000f35b5050505050565b7f12ac9a25dcd5e1a832a9061a082c15dd1d61aa9c4d553505739d0f5d65dc3be485527f025aa744581ebe7ad91731911c898569106ff5a2d30f3eee2b23c60ee980acd460208601526000608086018661030887357f2e32a094b7589554f7bc357bf63481acd2d55555c203383782a4650787ff66427f0707b920bc978c02f292fae2036e057be54294114ccc3c8769d883f688a1423f84610200565b61035860208801357f2ede7c9acf48cf3a3729fa3d68714e2a8435d4fa6db8f7f409c153b1fcdf9b8b7f0bca36e2cbe6394b3e249751853f961511011c7148e336f4fd974644850fc34784610200565b6103a860408801357f2b91a26aa92e1b6f5722949f192a81c850d586d81a60157f3e9cf04f679cccd67f1b8af999dbfbb3927c091cc2aaf201e488cbacc3e2c6b6fb5a25f9112e04f2a784610200565b6103f860608801357f2fe520ad2020aab9cbba817fcbb9a863b8a76ff88f14f912c5e71665b2ad5e827f2b5f494ed674235b8ac1750bdfd5a7615f002d4a1dcefeddd06eda5a076ccd0d84610200565b61044860808801357f214bfcff74f425f6fe8c0d07b307482d8bc8bb2f3608f68287aa01bd0b69e8097f0f1c3c0d5d9da0fa03666843cde4e82e869ba5252fce3c25d5940320b1c4d49384610200565b50823581527f30644e72e131a029b85045b68181585d97816a916871ca8d3c208c16d87cfd4760208401357f30644e72e131a029b85045b68181585d97816a916871ca8d3c208c16d87cfd4703066020820152833560408201526020840135606082015260408401356080820152606084013560a08201527f2d4d9aa7e302d9df41749d5507949d05dbea33fbb16c643b22f599a2be6df2e260c08201527f14bedd503c37ceb061d8ec60209fe345ce89830a19230301f076caff004d192660e08201527f0967032fcbf776d1afc985f88877f182d38480a653f2decaa9794cbc3bf3060c6101008201527f0e187847ad4c798374d0d6732bf501847dd68bc0e071241e0213bc7fc13db7ab6101208201527f304cfbd1e08a704a99f5e847d93f8c3caafddec46b7a0d379da69a4d112346a76101408201527f1739c1b1a457a8c7313123d24d2f9192f896b7c63eea05a9d57f06547ad0cec8610160820152600087015161018082015260206000018701516101a08201527f198e9393920d483a7260bfb731fb5d25f1aa493335a9e71297e485b7aef312c26101c08201527f1800deef121f1e76426a00665e5c4479674322d4f75edadd46debd5cd992f6ed6101e08201527f090689d0585ff075ec9e99ad690c3395bc4b313370b38ef355acdadcd122975b6102008201527f12c85ea5db8c6deb4aab71808dcb408fe3d1e7690c43d37b4ce6cc0166fa7daa610220820152843561024082015260208501356102608201527f03b03cd5effa95ac9bee94f1f5ef907157bda4812ccf0b4c91f42bb629f83a1c6102808201527f1aa085ff28179a12d922dba0547057ccaae94b9d69cfaa4e60401fea7f3e03336102a08201527f110c10134f200b19f6490846d518c9aea868366efb7228ca5c91d2940d0307626102c08201527f1e60f31fcbf757e837e867178318832d0b2d74d59e2fea1c7142df187d3fc6d36102e08201526020816103008360086107d05a03fa9051169695505050505050565b604051610380810160405261074060008401356101cf565b61074d60208401356101cf565b61075a60408401356101cf565b61076760608401356101cf565b61077460808401356101cf565b61078160a08401356101cf565b61078e818486888a61026b565b90508060005260206000f35b6107b684846107b16107ac86866109d7565b610b40565b6107bc565b50505050565b6107ca600460008486611069565b6107d391611093565b6001600160e01b0319167f00000000000000000000000000000000000000000000000000000000000000006001600160e01b031916146108775761081b600460008486611069565b61082491611093565b604051632e2ce35360e21b81526001600160e01b031991821660048201527f0000000000000000000000000000000000000000000000000000000000000000909116602482015260440160405180910390fd5b60008061088383610c9f565b909250905060006108978560048189611069565b8101906108a49190611175565b8051602080830151604080850151815160a0810183527f0000000000000000000000000000000000000000000000000000000000000000608090811c82527f0000000000000000000000000000000000000000000000000000000000000000811c9582019590955289851c8184015288851c60608201527f00000000000000000000000000000000000000000000000000000000000000009481019490945290516334baeab960e01b815294955060009430946334baeab99461096d9491939192600401611232565b602060405180830381865afa15801561098a573d6000803e3d6000fd5b505050506040513d601f19601f820116820180604052508101906109ae91906112d9565b9050806109ce5760405163439cc0cd60e01b815260040160405180910390fd5b50505050505050565b6109df610e9e565b6040518060a00160405280848152602001600280604051610a17907072697363302e53797374656d537461746560781b815260110190565b602060405180830381855afa158015610a34573d6000803e3d6000fd5b5050506040513d601f19601f82011682018060405250810190610a5791906112fb565b60408051602081019290925260009082018190526060820152600160f81b606482015260660160408051601f1981840301815290829052610a9791611314565b602060405180830381855afa158015610ab4573d6000803e3d6000fd5b5050506040513d601f19601f82011682018060405250810190610ad791906112fb565b8152602001604051806040016040528060006002811115610afa57610afa611343565b8152602001600060ff1681525081526020016000801b8152602001610b3560405180604001604052808681526020016000801b815250610e06565b905290505b92915050565b6000600280604051610b6a907172697363302e52656365697074436c61696d60701b815260120190565b602060405180830381855afa158015610b87573d6000803e3d6000fd5b5050506040513d601f19601f82011682018060405250810190610baa91906112fb565b60608401518451602086015160808701516040880151516018906002811115610bd557610bd5611343565b60408a810151602090810151825191820199909952908101969096526060860194909452608085019290925260a084015263ffffffff909116901b60e01b6001600160e01b03191660c082015260f89190911b6001600160f81b03191660c4820152600160fa1b60c882015260ca015b60408051601f1981840301815290829052610c5f91611314565b602060405180830381855afa158015610c7c573d6000803e3d6000fd5b5050506040513d601f19601f82011682018060405250810190610b3a91906112fb565b60008080610dec8460008190506008817eff00ff00ff00ff00ff00ff00ff00ff00ff00ff00ff00ff00ff00ff00ff00ff16901b6008827fff00ff00ff00ff00ff00ff00ff00ff00ff00ff00ff00ff00ff00ff00ff00ff0016901c1790506010817dffff0000ffff0000ffff0000ffff0000ffff0000ffff0000ffff0000ffff16901b6010827fffff0000ffff0000ffff0000ffff0000ffff0000ffff0000ffff0000ffff000016901c1790506020817bffffffff00000000ffffffff00000000ffffffff00000000ffffffff16901b6020827fffffffff00000000ffffffff00000000ffffffff00000000ffffffff0000000016901c17905060408177ffffffffffffffff0000000000000000ffffffffffffffff16901b60408277ffffffffffffffff0000000000000000ffffffffffffffff1916901c179050608081901b608082901c179050919050565b608081901b956001600160801b0319909116945092505050565b6000600280604051610e2a906b1c9a5cd8cc0b93dd5d1c1d5d60a21b8152600c0190565b602060405180830381855afa158015610e47573d6000803e3d6000fd5b5050506040513d601f19601f82011682018060405250810190610e6a91906112fb565b83516020808601516040805192830194909452928101919091526060810191909152600160f91b6080820152608201610c45565b6040805160a08101825260008082526020820152908101610ecf604080518082019091526000808252602082015290565b815260006020820181905260409091015290565b600060208284031215610ef557600080fd5b813567ffffffffffffffff811115610f0c57600080fd5b820160408185031215610f1e57600080fd5b9392505050565b8060408101831015610b3a57600080fd5b6000806000806101a0808688031215610f4e57600080fd5b610f588787610f25565b945060c0860187811115610f6b57600080fd5b604087019450610f7b8882610f25565b935050868187011115610f8d57600080fd5b50929591945092610100019150565b60008060008060608587031215610fb257600080fd5b843567ffffffffffffffff80821115610fca57600080fd5b818701915087601f830112610fde57600080fd5b813581811115610fed57600080fd5b886020828501011115610fff57600080fd5b6020928301999098509187013596604001359550909350505050565b6000808335601e1984360301811261103257600080fd5b83018035915067ffffffffffffffff82111561104d57600080fd5b60200191503681900382131561106257600080fd5b9250929050565b6000808585111561107957600080fd5b8386111561108657600080fd5b5050820193919092039150565b6001600160e01b031981358181169160048510156110bb5780818660040360031b1b83161692505b505092915050565b634e487b7160e01b600052604160045260246000fd5b6040516060810167ffffffffffffffff811182821017156110fc576110fc6110c3565b60405290565b6040805190810167ffffffffffffffff811182821017156110fc576110fc6110c3565b600082601f83011261113657600080fd5b61113e611102565b80604084018581111561115057600080fd5b845b8181101561116a578035845260209384019301611152565b509095945050505050565b6000610100828403121561118857600080fd5b6111906110d9565b61119a8484611125565b8152604084605f8501126111ad57600080fd5b6111b5611102565b8060c08601878111156111c757600080fd5b604087015b818110156111ed576111de8982611125565b845260209093019284016111cc565b508160208601526111fe8882611125565b604086015250929695505050505050565b8060005b60028110156107b6578151845260209384019390910190600101611213565b6101a08101611241828761120f565b60408083018660005b60028082106112595750611294565b82518460005b8381101561127d57825182526020928301929091019060010161125f565b50505092840192506020919091019060010161124a565b505050506112a560c083018561120f565b61010082018360005b60058110156112cd5781518352602092830192909101906001016112ae565b50505095945050505050565b6000602082840312156112eb57600080fd5b81518015158114610f1e57600080fd5b60006020828403121561130d57600080fd5b5051919050565b6000825160005b81811015611335576020818601810151858301520161131b565b506000920191825250919050565b634e487b7160e01b600052602160045260246000fdfea2646970667358221220cd7f69bea6c220792b1aabe1f146b38a244a3822aa2b2927c1704a739d47a91a64736f6c63430008160033",
  "devdoc": {
    "errors": {
      "SafeCastOverflowedUintDowncast(uint8,uint256)": [
        {
          "details": "Value doesn't fit in an uint of `bits` size."
        }
      ]
    },
    "kind": "dev",
    "methods": {
      "verify(bytes,bytes32,bytes32)": {
        "details": "This method additionally ensures that the input hash is all-zeros (i.e. no committed input), the exit code is (Halted, 0), and there are no assumptions (i.e. the receipt is unconditional).",
        "params": {
          "imageId": "The identifier for the guest program.",
          "journalDigest": "The SHA-256 digest of the journal bytes.",
          "seal": "The encoded cryptographic proof (i.e. SNARK)."
        }
      },
      "verifyIntegrity((bytes,bytes32))": {
        "params": {
          "receipt": "The receipt to be verified."
        }
      }
    },
    "stateVariables": {
      "CONTROL_ROOT_0": {
        "details": "This value controls what set of recursion programs (e.g. lift, join, resolve), and therefore what version of the zkVM circuit, will be accepted by this contract. Each instance of this verifier contract will accept a single release of the RISC Zero circuits. New releases of RISC Zero's zkVM require updating these values. These values can be calculated from the [risc0 monorepo][1] using: `cargo xtask bootstrap`. [1]: https://github.com/risc0/risc0"
      },
      "SELECTOR": {
        "details": "The selector is taken from the hash of the verifier parameters including the Groth16      verification key and the control IDs that commit to the RISC Zero circuits. If two      receipts have different selectors (i.e. different verifier parameters), then it can      generally be assumed that they need distinct verifier implementations. This is used as      part of the RISC Zero versioning mechanism.      A selector is not intended to be collision resistant, in that it is possible to find      two preimages that result in the same selector. This is acceptable since it's purpose      to a route a request among a set of trusted verifiers, and to make errors of sending a      receipt to a mismatching verifiers easier to debug. It is analogous to the ABI      function selectors."
      }
    },
    "version": 1
  },
  "userdoc": {
    "errors": {
      "SelectorMismatch(bytes4,bytes4)": [
        {
          "notice": "Error raised when this verifier receives a receipt with a selector that does not match         its own. The selector value is calculated from the verifier parameters, and so this         usually indicates a mismatch between the version of the prover and this verifier."
        }
      ],
      "VerificationFailed()": [
        {
          "notice": "Error raised when cryptographic verification of the zero-knowledge proof fails."
        }
      ]
    },
    "kind": "user",
    "methods": {
      "CONTROL_ROOT_0()": {
        "notice": "Control root hash binding the set of circuits in the RISC Zero system."
      },
      "SELECTOR()": {
        "notice": "A short key attached to the seal to select the correct verifier implementation."
      },
      "verify(bytes,bytes32,bytes32)": {
        "notice": "Verify that the given seal is a valid RISC Zero proof of execution with the     given image ID and journal digest. Reverts on failure."
      },
      "verifyIntegrity((bytes,bytes32))": {
        "notice": "Verify that the given receipt is a valid RISC Zero receipt, ensuring the `seal` is valid a cryptographic proof of the execution with the given `claim`. Reverts on failure."
      }
    },
    "notice": "Groth16 verifier contract for RISC Zero receipts of execution.",
    "version": 1
  },
  "storageLayout": {
    "storage": [],
    "types": null
  }
}